{
  "contractName": "Exchange",
  "abi": [
    {
      "constant": true,
      "inputs": [],
      "name": "feeAccount",
      "outputs": [
        {
          "name": "",
          "type": "address"
        }
      ],
      "payable": false,
      "stateMutability": "view",
      "type": "function"
    },
    {
      "constant": true,
      "inputs": [],
      "name": "feePercent",
      "outputs": [
        {
          "name": "",
          "type": "uint256"
        }
      ],
      "payable": false,
      "stateMutability": "view",
      "type": "function"
    },
    {
      "inputs": [
        {
          "name": "_feeAccount",
          "type": "address"
        },
        {
          "name": "_feePercent",
          "type": "uint256"
        }
      ],
      "payable": false,
      "stateMutability": "nonpayable",
      "type": "constructor"
    }
  ],
  "bytecode": "0x608060405234801561001057600080fd5b506040516040806101948339810180604052604081101561003057600080fd5b810190808051906020019092919080519060200190929190505050816000806101000a81548173ffffffffffffffffffffffffffffffffffffffff021916908373ffffffffffffffffffffffffffffffffffffffff16021790555080600181905550505060f2806100a26000396000f3fe6080604052348015600f57600080fd5b506004361060325760003560e01c806365e17c9d1460375780637fd6f15c14607f575b600080fd5b603d609b565b604051808273ffffffffffffffffffffffffffffffffffffffff1673ffffffffffffffffffffffffffffffffffffffff16815260200191505060405180910390f35b608560c0565b6040518082815260200191505060405180910390f35b6000809054906101000a900473ffffffffffffffffffffffffffffffffffffffff1681565b6001548156fea165627a7a72305820416ca8640cd5f6cdf9e044690f0e4e46deb539dd5d3396192d3fcd8c717fb1970029",
  "source": "/*\r\n-Can Deposit and Withdraw Funds\r\n-Manage Orders \r\n - make orders\r\n - cancel orders\r\n-Make Trades\r\n - fill orders\r\n - charge fees\r\n\r\n ** Set Fee\r\n ** Set Account for Fee\r\n **Deposit Ether\r\n **Withdraw Ether\r\n **Deposit Tokens\r\n **Withdraw Tokens\r\n **Check balances\r\n **Make orders\r\n **Cancel order\r\n **Fill order\r\n **Charge fees\r\n\r\n*/\r\n\r\npragma solidity ^0.5.0;\r\nimport \"openzeppelin-solidity/contracts/math/SafeMath.sol\";\r\n\r\ncontract Exchange {\r\n\r\n    address public feeAccount; //account for exchange fees\r\n    uint256 public feePercent; // percentage of fees taken in trades etc by exchange\r\n\r\n    constructor(address _feeAccount, uint _feePercent) public {\r\n        feeAccount = _feeAccount;\r\n        feePercent = _feePercent;\r\n    }\r\n}",
  "sourcePath": "C:/Users/Zed/Desktop/Careers/1_Full_Stack_Software_Developer_Engineer/1_Portfolio_Projects/simple-decentralised-exchange/src/contracts/Exchange.sol",
  "compiler": {
    "name": "solc",
    "version": "0.5.8+commit.23d335f2.Emscripten.clang"
  },
  "schemaVersion": "3.0.15",
  "updatedAt": "2019-11-04T10:53:42.108Z",
  "devdoc": {
    "methods": {}
  },
  "userdoc": {
    "methods": {}
  }
}