{
  "contractName": "Exchange",
  "abi": [
    {
      "inputs": [
        {
          "internalType": "address",
          "name": "_feeAccount",
          "type": "address"
        },
        {
          "internalType": "uint256",
          "name": "_feePercent",
          "type": "uint256"
        },
        {
          "internalType": "contract ILighthouse",
          "name": "_myLighthouse",
          "type": "address"
        }
      ],
      "stateMutability": "nonpayable",
      "type": "constructor"
    },
    {
      "anonymous": false,
      "inputs": [
        {
          "indexed": false,
          "internalType": "uint256",
          "name": "id",
          "type": "uint256"
        },
        {
          "indexed": false,
          "internalType": "address",
          "name": "user",
          "type": "address"
        },
        {
          "indexed": false,
          "internalType": "address",
          "name": "tokenGet",
          "type": "address"
        },
        {
          "indexed": false,
          "internalType": "uint256",
          "name": "amountGet",
          "type": "uint256"
        },
        {
          "indexed": false,
          "internalType": "address",
          "name": "tokenGive",
          "type": "address"
        },
        {
          "indexed": false,
          "internalType": "uint256",
          "name": "amountGive",
          "type": "uint256"
        },
        {
          "indexed": false,
          "internalType": "uint256",
          "name": "timestamp",
          "type": "uint256"
        }
      ],
      "name": "Cancel",
      "type": "event"
    },
    {
      "anonymous": false,
      "inputs": [
        {
          "indexed": false,
          "internalType": "address",
          "name": "token",
          "type": "address"
        },
        {
          "indexed": false,
          "internalType": "address",
          "name": "user",
          "type": "address"
        },
        {
          "indexed": false,
          "internalType": "uint256",
          "name": "amount",
          "type": "uint256"
        },
        {
          "indexed": false,
          "internalType": "uint256",
          "name": "balance",
          "type": "uint256"
        }
      ],
      "name": "Deposit",
      "type": "event"
    },
    {
      "anonymous": false,
      "inputs": [
        {
          "indexed": false,
          "internalType": "uint256",
          "name": "id",
          "type": "uint256"
        },
        {
          "indexed": false,
          "internalType": "address",
          "name": "user",
          "type": "address"
        },
        {
          "indexed": false,
          "internalType": "address",
          "name": "tokenGet",
          "type": "address"
        },
        {
          "indexed": false,
          "internalType": "uint256",
          "name": "amountGet",
          "type": "uint256"
        },
        {
          "indexed": false,
          "internalType": "address",
          "name": "tokenGive",
          "type": "address"
        },
        {
          "indexed": false,
          "internalType": "uint256",
          "name": "amountGive",
          "type": "uint256"
        },
        {
          "indexed": false,
          "internalType": "uint256",
          "name": "timestamp",
          "type": "uint256"
        }
      ],
      "name": "Order",
      "type": "event"
    },
    {
      "anonymous": false,
      "inputs": [
        {
          "indexed": true,
          "internalType": "address",
          "name": "previousOwner",
          "type": "address"
        },
        {
          "indexed": true,
          "internalType": "address",
          "name": "newOwner",
          "type": "address"
        }
      ],
      "name": "OwnershipTransferred",
      "type": "event"
    },
    {
      "anonymous": false,
      "inputs": [
        {
          "indexed": false,
          "internalType": "address",
          "name": "admin",
          "type": "address"
        },
        {
          "indexed": false,
          "internalType": "bool",
          "name": "isEmergency",
          "type": "bool"
        }
      ],
      "name": "StartExchange",
      "type": "event"
    },
    {
      "anonymous": false,
      "inputs": [
        {
          "indexed": false,
          "internalType": "address",
          "name": "admin",
          "type": "address"
        },
        {
          "indexed": false,
          "internalType": "bool",
          "name": "isEmergency",
          "type": "bool"
        }
      ],
      "name": "StopExchange",
      "type": "event"
    },
    {
      "anonymous": false,
      "inputs": [
        {
          "indexed": false,
          "internalType": "uint256",
          "name": "id",
          "type": "uint256"
        },
        {
          "indexed": false,
          "internalType": "address",
          "name": "user",
          "type": "address"
        },
        {
          "indexed": false,
          "internalType": "address",
          "name": "tokenGet",
          "type": "address"
        },
        {
          "indexed": false,
          "internalType": "uint256",
          "name": "amountGet",
          "type": "uint256"
        },
        {
          "indexed": false,
          "internalType": "address",
          "name": "tokenGive",
          "type": "address"
        },
        {
          "indexed": false,
          "internalType": "uint256",
          "name": "amountGive",
          "type": "uint256"
        },
        {
          "indexed": false,
          "internalType": "address",
          "name": "userFill",
          "type": "address"
        },
        {
          "indexed": false,
          "internalType": "uint256",
          "name": "timestamp",
          "type": "uint256"
        },
        {
          "indexed": false,
          "internalType": "bool",
          "name": "isLucky",
          "type": "bool"
        }
      ],
      "name": "Trade",
      "type": "event"
    },
    {
      "anonymous": false,
      "inputs": [
        {
          "indexed": false,
          "internalType": "address",
          "name": "token",
          "type": "address"
        },
        {
          "indexed": false,
          "internalType": "address",
          "name": "user",
          "type": "address"
        },
        {
          "indexed": false,
          "internalType": "uint256",
          "name": "amount",
          "type": "uint256"
        },
        {
          "indexed": false,
          "internalType": "uint256",
          "name": "balance",
          "type": "uint256"
        }
      ],
      "name": "Withdraw",
      "type": "event"
    },
    {
      "inputs": [],
      "name": "ETHER",
      "outputs": [
        {
          "internalType": "address",
          "name": "",
          "type": "address"
        }
      ],
      "stateMutability": "view",
      "type": "function",
      "constant": true
    },
    {
      "inputs": [],
      "name": "cancelledOrderCount",
      "outputs": [
        {
          "internalType": "uint256",
          "name": "",
          "type": "uint256"
        }
      ],
      "stateMutability": "view",
      "type": "function",
      "constant": true
    },
    {
      "inputs": [],
      "name": "emergency",
      "outputs": [
        {
          "internalType": "bool",
          "name": "",
          "type": "bool"
        }
      ],
      "stateMutability": "view",
      "type": "function",
      "constant": true
    },
    {
      "inputs": [],
      "name": "feeAccount",
      "outputs": [
        {
          "internalType": "address",
          "name": "",
          "type": "address"
        }
      ],
      "stateMutability": "view",
      "type": "function",
      "constant": true
    },
    {
      "inputs": [],
      "name": "feePercent",
      "outputs": [
        {
          "internalType": "uint256",
          "name": "",
          "type": "uint256"
        }
      ],
      "stateMutability": "view",
      "type": "function",
      "constant": true
    },
    {
      "inputs": [],
      "name": "filledOrderCount",
      "outputs": [
        {
          "internalType": "uint256",
          "name": "",
          "type": "uint256"
        }
      ],
      "stateMutability": "view",
      "type": "function",
      "constant": true
    },
    {
      "inputs": [],
      "name": "myLighthouse",
      "outputs": [
        {
          "internalType": "contract ILighthouse",
          "name": "",
          "type": "address"
        }
      ],
      "stateMutability": "view",
      "type": "function",
      "constant": true
    },
    {
      "inputs": [
        {
          "internalType": "uint256",
          "name": "",
          "type": "uint256"
        }
      ],
      "name": "orderCancelled",
      "outputs": [
        {
          "internalType": "bool",
          "name": "",
          "type": "bool"
        }
      ],
      "stateMutability": "view",
      "type": "function",
      "constant": true
    },
    {
      "inputs": [],
      "name": "orderCount",
      "outputs": [
        {
          "internalType": "uint256",
          "name": "",
          "type": "uint256"
        }
      ],
      "stateMutability": "view",
      "type": "function",
      "constant": true
    },
    {
      "inputs": [
        {
          "internalType": "uint256",
          "name": "",
          "type": "uint256"
        }
      ],
      "name": "orderFilled",
      "outputs": [
        {
          "internalType": "bool",
          "name": "",
          "type": "bool"
        }
      ],
      "stateMutability": "view",
      "type": "function",
      "constant": true
    },
    {
      "inputs": [
        {
          "internalType": "uint256",
          "name": "",
          "type": "uint256"
        }
      ],
      "name": "orders",
      "outputs": [
        {
          "internalType": "uint256",
          "name": "id",
          "type": "uint256"
        },
        {
          "internalType": "address",
          "name": "user",
          "type": "address"
        },
        {
          "internalType": "address",
          "name": "tokenGet",
          "type": "address"
        },
        {
          "internalType": "uint256",
          "name": "amountGet",
          "type": "uint256"
        },
        {
          "internalType": "address",
          "name": "tokenGive",
          "type": "address"
        },
        {
          "internalType": "uint256",
          "name": "amountGive",
          "type": "uint256"
        },
        {
          "internalType": "uint256",
          "name": "timestamp",
          "type": "uint256"
        }
      ],
      "stateMutability": "view",
      "type": "function",
      "constant": true
    },
    {
      "inputs": [],
      "name": "owner",
      "outputs": [
        {
          "internalType": "address",
          "name": "",
          "type": "address"
        }
      ],
      "stateMutability": "view",
      "type": "function",
      "constant": true
    },
    {
      "inputs": [],
      "name": "renounceOwnership",
      "outputs": [],
      "stateMutability": "nonpayable",
      "type": "function"
    },
    {
      "inputs": [
        {
          "internalType": "address",
          "name": "",
          "type": "address"
        },
        {
          "internalType": "address",
          "name": "",
          "type": "address"
        }
      ],
      "name": "tokens",
      "outputs": [
        {
          "internalType": "uint256",
          "name": "",
          "type": "uint256"
        }
      ],
      "stateMutability": "view",
      "type": "function",
      "constant": true
    },
    {
      "inputs": [
        {
          "internalType": "address",
          "name": "newOwner",
          "type": "address"
        }
      ],
      "name": "transferOwnership",
      "outputs": [],
      "stateMutability": "nonpayable",
      "type": "function"
    },
    {
      "inputs": [],
      "name": "stopExchange",
      "outputs": [],
      "stateMutability": "nonpayable",
      "type": "function"
    },
    {
      "inputs": [],
      "name": "startExchange",
      "outputs": [],
      "stateMutability": "nonpayable",
      "type": "function"
    },
    {
      "inputs": [],
      "name": "depositEther",
      "outputs": [],
      "stateMutability": "payable",
      "type": "function",
      "payable": true
    },
    {
      "inputs": [
        {
          "internalType": "uint256",
          "name": "_amount",
          "type": "uint256"
        }
      ],
      "name": "withdrawEther",
      "outputs": [],
      "stateMutability": "nonpayable",
      "type": "function"
    },
    {
      "inputs": [
        {
          "internalType": "address",
          "name": "_token",
          "type": "address"
        },
        {
          "internalType": "uint256",
          "name": "_amount",
          "type": "uint256"
        }
      ],
      "name": "depositToken",
      "outputs": [],
      "stateMutability": "nonpayable",
      "type": "function"
    },
    {
      "inputs": [
        {
          "internalType": "address",
          "name": "_token",
          "type": "address"
        },
        {
          "internalType": "uint256",
          "name": "_amount",
          "type": "uint256"
        }
      ],
      "name": "withdrawToken",
      "outputs": [],
      "stateMutability": "nonpayable",
      "type": "function"
    },
    {
      "inputs": [
        {
          "internalType": "address",
          "name": "_token",
          "type": "address"
        },
        {
          "internalType": "address",
          "name": "_user",
          "type": "address"
        }
      ],
      "name": "balanceOf",
      "outputs": [
        {
          "internalType": "uint256",
          "name": "",
          "type": "uint256"
        }
      ],
      "stateMutability": "view",
      "type": "function",
      "constant": true
    },
    {
      "inputs": [
        {
          "internalType": "address",
          "name": "_tokenGet",
          "type": "address"
        },
        {
          "internalType": "uint256",
          "name": "_amountGet",
          "type": "uint256"
        },
        {
          "internalType": "address",
          "name": "_tokenGive",
          "type": "address"
        },
        {
          "internalType": "uint256",
          "name": "_amountGive",
          "type": "uint256"
        }
      ],
      "name": "makeOrder",
      "outputs": [],
      "stateMutability": "nonpayable",
      "type": "function"
    },
    {
      "inputs": [
        {
          "internalType": "uint256",
          "name": "_id",
          "type": "uint256"
        }
      ],
      "name": "cancelOrder",
      "outputs": [],
      "stateMutability": "nonpayable",
      "type": "function"
    },
    {
      "inputs": [
        {
          "internalType": "uint256",
          "name": "_id",
          "type": "uint256"
        }
      ],
      "name": "fillOrder",
      "outputs": [],
      "stateMutability": "nonpayable",
      "type": "function"
    }
  ],
  "bytecode": "0x60806040526000600b60006101000a81548160ff0219169083151502179055503480156200002c57600080fd5b506040516200343b3803806200343b8339818101604052810190620000529190620002ba565b62000072620000666200010460201b60201c565b6200010c60201b60201c565b82600260006101000a81548173ffffffffffffffffffffffffffffffffffffffff021916908373ffffffffffffffffffffffffffffffffffffffff1602179055508160038190555080600160006101000a81548173ffffffffffffffffffffffffffffffffffffffff021916908373ffffffffffffffffffffffffffffffffffffffff16021790555050505062000316565b600033905090565b60008060009054906101000a900473ffffffffffffffffffffffffffffffffffffffff169050816000806101000a81548173ffffffffffffffffffffffffffffffffffffffff021916908373ffffffffffffffffffffffffffffffffffffffff1602179055508173ffffffffffffffffffffffffffffffffffffffff168173ffffffffffffffffffffffffffffffffffffffff167f8be0079c531659141344cd1fd0a4f28419497f9722a3daafe3b4186f6b6457e060405160405180910390a35050565b600080fd5b600073ffffffffffffffffffffffffffffffffffffffff82169050919050565b60006200020282620001d5565b9050919050565b6200021481620001f5565b81146200022057600080fd5b50565b600081519050620002348162000209565b92915050565b6000819050919050565b6200024f816200023a565b81146200025b57600080fd5b50565b6000815190506200026f8162000244565b92915050565b60006200028282620001f5565b9050919050565b620002948162000275565b8114620002a057600080fd5b50565b600081519050620002b48162000289565b92915050565b600080600060608486031215620002d657620002d5620001d0565b5b6000620002e68682870162000223565b9350506020620002f9868287016200025e565b92505060406200030c86828701620002a3565b9150509250925092565b61311580620003266000396000f3fe6080604052600436106101665760003560e01c806375e01780116100d1578063a85c38ef1161008a578063e9c1896611610064578063e9c18966146104c5578063ed79c14414610502578063f2fde38b1461052d578063f7888aec1461055657610166565b8063a85c38ef14610440578063caa6fea414610483578063db40e896146104ae57610166565b806375e01780146103775780637fd6f15c1461038e5780638da5cb5b146103b957806398ea5fca146103e45780639a5c90aa146103ee5780639e281a981461041757610166565b8063508493bc11610123578063508493bc1461027b578063514fcac7146102b8578063524704ac146102e157806365e17c9d1461030c57806367b830ad14610337578063715018a61461036057610166565b80632453ffa81461016b578063338b5dea1461019657806334a6ee5c146101bf5780633bed33ce146101ea57806342cb1fbc146102135780634a93e0da1461023e575b600080fd5b34801561017757600080fd5b50610180610593565b60405161018d91906127cf565b60405180910390f35b3480156101a257600080fd5b506101bd60048036038101906101b89190612879565b610599565b005b3480156101cb57600080fd5b506101d4610841565b6040516101e191906127cf565b60405180910390f35b3480156101f657600080fd5b50610211600480360381019061020c91906128b9565b610847565b005b34801561021f57600080fd5b50610228610bb4565b60405161023591906128f5565b60405180910390f35b34801561024a57600080fd5b50610265600480360381019061026091906128b9565b610bb9565b604051610272919061292b565b60405180910390f35b34801561028757600080fd5b506102a2600480360381019061029d9190612946565b610bd9565b6040516102af91906127cf565b60405180910390f35b3480156102c457600080fd5b506102df60048036038101906102da91906128b9565b610bfe565b005b3480156102ed57600080fd5b506102f6610d64565b60405161030391906129e5565b60405180910390f35b34801561031857600080fd5b50610321610d8a565b60405161032e91906128f5565b60405180910390f35b34801561034357600080fd5b5061035e600480360381019061035991906128b9565b610db0565b005b34801561036c57600080fd5b50610375610f28565b005b34801561038357600080fd5b5061038c610fb0565b005b34801561039a57600080fd5b506103a36110aa565b6040516103b091906127cf565b60405180910390f35b3480156103c557600080fd5b506103ce6110b0565b6040516103db91906128f5565b60405180910390f35b6103ec6110d9565b005b3480156103fa57600080fd5b5061041560048036038101906104109190612a00565b6112be565b005b34801561042357600080fd5b5061043e60048036038101906104399190612879565b6114cb565b005b34801561044c57600080fd5b50610467600480360381019061046291906128b9565b6117e0565b60405161047a9796959493929190612a67565b60405180910390f35b34801561048f57600080fd5b50610498611882565b6040516104a5919061292b565b60405180910390f35b3480156104ba57600080fd5b506104c3611895565b005b3480156104d157600080fd5b506104ec60048036038101906104e791906128b9565b61198f565b6040516104f9919061292b565b60405180910390f35b34801561050e57600080fd5b506105176119af565b60405161052491906127cf565b60405180910390f35b34801561053957600080fd5b50610554600480360381019061054f9190612ad6565b6119b5565b005b34801561056257600080fd5b5061057d60048036038101906105789190612946565b611aac565b60405161058a91906127cf565b60405180910390f35b60065481565b600160149054906101000a900460ff16156105b357600080fd5b600073ffffffffffffffffffffffffffffffffffffffff168273ffffffffffffffffffffffffffffffffffffffff16036105ec57600080fd5b8173ffffffffffffffffffffffffffffffffffffffff166323b872dd3330846040518463ffffffff1660e01b815260040161062993929190612b03565b6020604051808303816000875af1158015610648573d6000803e3d6000fd5b505050506040513d601f19601f8201168201806040525081019061066c9190612b66565b61067557600080fd5b61070481600460008573ffffffffffffffffffffffffffffffffffffffff1673ffffffffffffffffffffffffffffffffffffffff16815260200190815260200160002060003373ffffffffffffffffffffffffffffffffffffffff1673ffffffffffffffffffffffffffffffffffffffff16815260200190815260200160002054611b3390919063ffffffff16565b600460008473ffffffffffffffffffffffffffffffffffffffff1673ffffffffffffffffffffffffffffffffffffffff16815260200190815260200160002060003373ffffffffffffffffffffffffffffffffffffffff1673ffffffffffffffffffffffffffffffffffffffff168152602001908152602001600020819055507fdcbc1c05240f31ff3ad067ef1ee35ce4997762752e3a095284754544f4c709d7823383600460008773ffffffffffffffffffffffffffffffffffffffff1673ffffffffffffffffffffffffffffffffffffffff16815260200190815260200160002060003373ffffffffffffffffffffffffffffffffffffffff1673ffffffffffffffffffffffffffffffffffffffff168152602001908152602001600020546040516108359493929190612b93565b60405180910390a15050565b60085481565b80600460008073ffffffffffffffffffffffffffffffffffffffff1673ffffffffffffffffffffffffffffffffffffffff16815260200190815260200160002060003373ffffffffffffffffffffffffffffffffffffffff1673ffffffffffffffffffffffffffffffffffffffff1681526020019081526020016000205410156108d057600080fd5b600b60009054906101000a900460ff1615610920576040517f08c379a000000000000000000000000000000000000000000000000000000000815260040161091790612c35565b60405180910390fd5b6109af81600460008073ffffffffffffffffffffffffffffffffffffffff1673ffffffffffffffffffffffffffffffffffffffff16815260200190815260200160002060003373ffffffffffffffffffffffffffffffffffffffff1673ffffffffffffffffffffffffffffffffffffffff16815260200190815260200160002054611b4990919063ffffffff16565b600460008073ffffffffffffffffffffffffffffffffffffffff1673ffffffffffffffffffffffffffffffffffffffff16815260200190815260200160002060003373ffffffffffffffffffffffffffffffffffffffff1673ffffffffffffffffffffffffffffffffffffffff1681526020019081526020016000208190555060003373ffffffffffffffffffffffffffffffffffffffff1682604051610a5590612c86565b60006040518083038185875af1925050503d8060008114610a92576040519150601f19603f3d011682016040523d82523d6000602084013e610a97565b606091505b5050905080610adb576040517f08c379a0000000000000000000000000000000000000000000000000000000008152600401610ad290612ce7565b60405180910390fd5b7ff341246adaac6f497bc2a656f546ab9e182111d630394f0c57c710a59a2cb56760003384600460008073ffffffffffffffffffffffffffffffffffffffff1673ffffffffffffffffffffffffffffffffffffffff16815260200190815260200160002060003373ffffffffffffffffffffffffffffffffffffffff1673ffffffffffffffffffffffffffffffffffffffff16815260200190815260200160002054604051610b8d9493929190612b93565b60405180910390a16000600b60006101000a81548160ff0219169083151502179055505050565b600081565b600a6020528060005260406000206000915054906101000a900460ff1681565b6004602052816000526040600020602052806000526040600020600091509150505481565b60006005600083815260200190815260200160002090503373ffffffffffffffffffffffffffffffffffffffff168160010160009054906101000a900473ffffffffffffffffffffffffffffffffffffffff1673ffffffffffffffffffffffffffffffffffffffff1614610c7157600080fd5b81816000015414610c8157600080fd5b610c976001600754611b3390919063ffffffff16565b60078190555060016009600084815260200190815260200160002060006101000a81548160ff0219169083151502179055507f77de1da0be5f2d3b110d05c6694e5c4ff2d9da7cd23d84353ecf78c7b5acec618160000154338360020160009054906101000a900473ffffffffffffffffffffffffffffffffffffffff1684600301548560040160009054906101000a900473ffffffffffffffffffffffffffffffffffffffff16866005015442604051610d589796959493929190612a67565b60405180910390a15050565b600160009054906101000a900473ffffffffffffffffffffffffffffffffffffffff1681565b600260009054906101000a900473ffffffffffffffffffffffffffffffffffffffff1681565b600160149054906101000a900460ff1615610dca57600080fd5b600081118015610ddc57506006548111155b610de557600080fd5b600a600082815260200190815260200160002060009054906101000a900460ff1615610e1057600080fd5b6009600082815260200190815260200160002060009054906101000a900460ff1615610e3b57600080fd5b6000600560008381526020019081526020016000209050610ed881600001548260010160009054906101000a900473ffffffffffffffffffffffffffffffffffffffff168360020160009054906101000a900473ffffffffffffffffffffffffffffffffffffffff1684600301548560040160009054906101000a900473ffffffffffffffffffffffffffffffffffffffff168660050154611b5f565b610eee6001600854611b3390919063ffffffff16565b6008819055506001600a60008360000154815260200190815260200160002060006101000a81548160ff0219169083151502179055505050565b610f306125e5565b73ffffffffffffffffffffffffffffffffffffffff16610f4e6110b0565b73ffffffffffffffffffffffffffffffffffffffff1614610fa4576040517f08c379a0000000000000000000000000000000000000000000000000000000008152600401610f9b90612d53565b60405180910390fd5b610fae60006125ed565b565b610fb86125e5565b73ffffffffffffffffffffffffffffffffffffffff16610fd66110b0565b73ffffffffffffffffffffffffffffffffffffffff161461102c576040517f08c379a000000000000000000000000000000000000000000000000000000000815260040161102390612d53565b60405180910390fd5b600160149054906101000a900460ff1661104557600080fd5b6000600160146101000a81548160ff0219169083151502179055507f8e55c90b9ed0db505e19df50d6c8791c51e3654c9c510c3db515d7d7d9ef825933600160149054906101000a900460ff166040516110a0929190612d73565b60405180910390a1565b60035481565b60008060009054906101000a900473ffffffffffffffffffffffffffffffffffffffff16905090565b600160149054906101000a900460ff16156110f357600080fd5b61118234600460008073ffffffffffffffffffffffffffffffffffffffff1673ffffffffffffffffffffffffffffffffffffffff16815260200190815260200160002060003373ffffffffffffffffffffffffffffffffffffffff1673ffffffffffffffffffffffffffffffffffffffff16815260200190815260200160002054611b3390919063ffffffff16565b600460008073ffffffffffffffffffffffffffffffffffffffff1673ffffffffffffffffffffffffffffffffffffffff16815260200190815260200160002060003373ffffffffffffffffffffffffffffffffffffffff1673ffffffffffffffffffffffffffffffffffffffff168152602001908152602001600020819055507fdcbc1c05240f31ff3ad067ef1ee35ce4997762752e3a095284754544f4c709d760003334600460008073ffffffffffffffffffffffffffffffffffffffff1673ffffffffffffffffffffffffffffffffffffffff16815260200190815260200160002060003373ffffffffffffffffffffffffffffffffffffffff1673ffffffffffffffffffffffffffffffffffffffff168152602001908152602001600020546040516112b49493929190612b93565b60405180910390a1565b600160149054906101000a900460ff16156112d857600080fd5b6112ee6001600654611b3390919063ffffffff16565b6006819055506040518060e0016040528060065481526020013373ffffffffffffffffffffffffffffffffffffffff1681526020018573ffffffffffffffffffffffffffffffffffffffff1681526020018481526020018373ffffffffffffffffffffffffffffffffffffffff168152602001828152602001428152506005600060065481526020019081526020016000206000820151816000015560208201518160010160006101000a81548173ffffffffffffffffffffffffffffffffffffffff021916908373ffffffffffffffffffffffffffffffffffffffff16021790555060408201518160020160006101000a81548173ffffffffffffffffffffffffffffffffffffffff021916908373ffffffffffffffffffffffffffffffffffffffff1602179055506060820151816003015560808201518160040160006101000a81548173ffffffffffffffffffffffffffffffffffffffff021916908373ffffffffffffffffffffffffffffffffffffffff16021790555060a0820151816005015560c082015181600601559050507f9d33853d43e3607b4cc01fdc78338ff2dca6fef7db9232dae6d3eb55fbc3b1096006543386868686426040516114bd9796959493929190612a67565b60405180910390a150505050565b600073ffffffffffffffffffffffffffffffffffffffff168273ffffffffffffffffffffffffffffffffffffffff160361150457600080fd5b80600460008473ffffffffffffffffffffffffffffffffffffffff1673ffffffffffffffffffffffffffffffffffffffff16815260200190815260200160002060003373ffffffffffffffffffffffffffffffffffffffff1673ffffffffffffffffffffffffffffffffffffffff16815260200190815260200160002054101561158d57600080fd5b61161c81600460008573ffffffffffffffffffffffffffffffffffffffff1673ffffffffffffffffffffffffffffffffffffffff16815260200190815260200160002060003373ffffffffffffffffffffffffffffffffffffffff1673ffffffffffffffffffffffffffffffffffffffff16815260200190815260200160002054611b4990919063ffffffff16565b600460008473ffffffffffffffffffffffffffffffffffffffff1673ffffffffffffffffffffffffffffffffffffffff16815260200190815260200160002060003373ffffffffffffffffffffffffffffffffffffffff1673ffffffffffffffffffffffffffffffffffffffff168152602001908152602001600020819055508173ffffffffffffffffffffffffffffffffffffffff1663a9059cbb33836040518363ffffffff1660e01b81526004016116d7929190612d9c565b6020604051808303816000875af11580156116f6573d6000803e3d6000fd5b505050506040513d601f19601f8201168201806040525081019061171a9190612b66565b61172357600080fd5b7ff341246adaac6f497bc2a656f546ab9e182111d630394f0c57c710a59a2cb567823383600460008773ffffffffffffffffffffffffffffffffffffffff1673ffffffffffffffffffffffffffffffffffffffff16815260200190815260200160002060003373ffffffffffffffffffffffffffffffffffffffff1673ffffffffffffffffffffffffffffffffffffffff168152602001908152602001600020546040516117d49493929190612b93565b60405180910390a15050565b60056020528060005260406000206000915090508060000154908060010160009054906101000a900473ffffffffffffffffffffffffffffffffffffffff16908060020160009054906101000a900473ffffffffffffffffffffffffffffffffffffffff16908060030154908060040160009054906101000a900473ffffffffffffffffffffffffffffffffffffffff16908060050154908060060154905087565b600160149054906101000a900460ff1681565b61189d6125e5565b73ffffffffffffffffffffffffffffffffffffffff166118bb6110b0565b73ffffffffffffffffffffffffffffffffffffffff1614611911576040517f08c379a000000000000000000000000000000000000000000000000000000000815260040161190890612d53565b60405180910390fd5b600160149054906101000a900460ff161561192b57600080fd5b60018060146101000a81548160ff0219169083151502179055507f044ffe47b277a37d6c0bf88db9debfac65163c29966a9287719cbc55cfc5f74133600160149054906101000a900460ff16604051611985929190612d73565b60405180910390a1565b60096020528060005260406000206000915054906101000a900460ff1681565b60075481565b6119bd6125e5565b73ffffffffffffffffffffffffffffffffffffffff166119db6110b0565b73ffffffffffffffffffffffffffffffffffffffff1614611a31576040517f08c379a0000000000000000000000000000000000000000000000000000000008152600401611a2890612d53565b60405180910390fd5b600073ffffffffffffffffffffffffffffffffffffffff168173ffffffffffffffffffffffffffffffffffffffff1603611aa0576040517f08c379a0000000000000000000000000000000000000000000000000000000008152600401611a9790612e37565b60405180910390fd5b611aa9816125ed565b50565b6000600460008473ffffffffffffffffffffffffffffffffffffffff1673ffffffffffffffffffffffffffffffffffffffff16815260200190815260200160002060008373ffffffffffffffffffffffffffffffffffffffff1673ffffffffffffffffffffffffffffffffffffffff16815260200190815260200160002054905092915050565b60008183611b419190612e86565b905092915050565b60008183611b579190612edc565b905092915050565b6000611b696126b1565b905080612143576000611b9a6064611b8c6003548861278a90919063ffffffff16565b6127a090919063ffffffff16565b9050611c3d611bb28287611b3390919063ffffffff16565b600460008973ffffffffffffffffffffffffffffffffffffffff1673ffffffffffffffffffffffffffffffffffffffff16815260200190815260200160002060003373ffffffffffffffffffffffffffffffffffffffff1673ffffffffffffffffffffffffffffffffffffffff16815260200190815260200160002054611b4990919063ffffffff16565b600460008873ffffffffffffffffffffffffffffffffffffffff1673ffffffffffffffffffffffffffffffffffffffff16815260200190815260200160002060003373ffffffffffffffffffffffffffffffffffffffff1673ffffffffffffffffffffffffffffffffffffffff16815260200190815260200160002081905550611d4c85600460008973ffffffffffffffffffffffffffffffffffffffff1673ffffffffffffffffffffffffffffffffffffffff16815260200190815260200160002060008a73ffffffffffffffffffffffffffffffffffffffff1673ffffffffffffffffffffffffffffffffffffffff16815260200190815260200160002054611b3390919063ffffffff16565b600460008873ffffffffffffffffffffffffffffffffffffffff1673ffffffffffffffffffffffffffffffffffffffff16815260200190815260200160002060008973ffffffffffffffffffffffffffffffffffffffff1673ffffffffffffffffffffffffffffffffffffffff16815260200190815260200160002081905550611e7d81600460008973ffffffffffffffffffffffffffffffffffffffff1673ffffffffffffffffffffffffffffffffffffffff1681526020019081526020016000206000600260009054906101000a900473ffffffffffffffffffffffffffffffffffffffff1673ffffffffffffffffffffffffffffffffffffffff1673ffffffffffffffffffffffffffffffffffffffff16815260200190815260200160002054611b3390919063ffffffff16565b600460008873ffffffffffffffffffffffffffffffffffffffff1673ffffffffffffffffffffffffffffffffffffffff1681526020019081526020016000206000600260009054906101000a900473ffffffffffffffffffffffffffffffffffffffff1673ffffffffffffffffffffffffffffffffffffffff1673ffffffffffffffffffffffffffffffffffffffff16815260200190815260200160002081905550611fae83600460008773ffffffffffffffffffffffffffffffffffffffff1673ffffffffffffffffffffffffffffffffffffffff16815260200190815260200160002060008a73ffffffffffffffffffffffffffffffffffffffff1673ffffffffffffffffffffffffffffffffffffffff16815260200190815260200160002054611b4990919063ffffffff16565b600460008673ffffffffffffffffffffffffffffffffffffffff1673ffffffffffffffffffffffffffffffffffffffff16815260200190815260200160002060008973ffffffffffffffffffffffffffffffffffffffff1673ffffffffffffffffffffffffffffffffffffffff168152602001908152602001600020819055506120bd83600460008773ffffffffffffffffffffffffffffffffffffffff1673ffffffffffffffffffffffffffffffffffffffff16815260200190815260200160002060003373ffffffffffffffffffffffffffffffffffffffff1673ffffffffffffffffffffffffffffffffffffffff16815260200190815260200160002054611b3390919063ffffffff16565b600460008673ffffffffffffffffffffffffffffffffffffffff1673ffffffffffffffffffffffffffffffffffffffff16815260200190815260200160002060003373ffffffffffffffffffffffffffffffffffffffff1673ffffffffffffffffffffffffffffffffffffffff1681526020019081526020016000208190555050612595565b60006121e661215b8287611b3390919063ffffffff16565b600460008973ffffffffffffffffffffffffffffffffffffffff1673ffffffffffffffffffffffffffffffffffffffff16815260200190815260200160002060003373ffffffffffffffffffffffffffffffffffffffff1673ffffffffffffffffffffffffffffffffffffffff16815260200190815260200160002054611b4990919063ffffffff16565b600460008873ffffffffffffffffffffffffffffffffffffffff1673ffffffffffffffffffffffffffffffffffffffff16815260200190815260200160002060003373ffffffffffffffffffffffffffffffffffffffff1673ffffffffffffffffffffffffffffffffffffffff168152602001908152602001600020819055506122f585600460008973ffffffffffffffffffffffffffffffffffffffff1673ffffffffffffffffffffffffffffffffffffffff16815260200190815260200160002060008a73ffffffffffffffffffffffffffffffffffffffff1673ffffffffffffffffffffffffffffffffffffffff16815260200190815260200160002054611b3390919063ffffffff16565b600460008873ffffffffffffffffffffffffffffffffffffffff1673ffffffffffffffffffffffffffffffffffffffff16815260200190815260200160002060008973ffffffffffffffffffffffffffffffffffffffff1673ffffffffffffffffffffffffffffffffffffffff1681526020019081526020016000208190555061240483600460008773ffffffffffffffffffffffffffffffffffffffff1673ffffffffffffffffffffffffffffffffffffffff16815260200190815260200160002060008a73ffffffffffffffffffffffffffffffffffffffff1673ffffffffffffffffffffffffffffffffffffffff16815260200190815260200160002054611b4990919063ffffffff16565b600460008673ffffffffffffffffffffffffffffffffffffffff1673ffffffffffffffffffffffffffffffffffffffff16815260200190815260200160002060008973ffffffffffffffffffffffffffffffffffffffff1673ffffffffffffffffffffffffffffffffffffffff1681526020019081526020016000208190555061251383600460008773ffffffffffffffffffffffffffffffffffffffff1673ffffffffffffffffffffffffffffffffffffffff16815260200190815260200160002060003373ffffffffffffffffffffffffffffffffffffffff1673ffffffffffffffffffffffffffffffffffffffff16815260200190815260200160002054611b3390919063ffffffff16565b600460008673ffffffffffffffffffffffffffffffffffffffff1673ffffffffffffffffffffffffffffffffffffffff16815260200190815260200160002060003373ffffffffffffffffffffffffffffffffffffffff1673ffffffffffffffffffffffffffffffffffffffff16815260200190815260200160002081905550505b7fd3bf6428b62b6000c832562283c51d8d67cbfa8934ba44fb8e85ce8f3724d66c8787878787873342896040516125d499989796959493929190612f10565b60405180910390a150505050505050565b600033905090565b60008060009054906101000a900473ffffffffffffffffffffffffffffffffffffffff169050816000806101000a81548173ffffffffffffffffffffffffffffffffffffffff021916908373ffffffffffffffffffffffffffffffffffffffff1602179055508173ffffffffffffffffffffffffffffffffffffffff168173ffffffffffffffffffffffffffffffffffffffff167f8be0079c531659141344cd1fd0a4f28419497f9722a3daafe3b4186f6b6457e060405160405180910390a35050565b6000806000600160009054906101000a900473ffffffffffffffffffffffffffffffffffffffff1673ffffffffffffffffffffffffffffffffffffffff1663420b81f66040518163ffffffff1660e01b81526004016040805180830381865afa158015612722573d6000803e3d6000fd5b505050506040513d601f19601f820116820180604052508101906127469190612fe5565b816fffffffffffffffffffffffffffffffff16915080925081935050508080156127705750600682145b1561278057600192505050612787565b6000925050505b90565b600081836127989190613025565b905092915050565b600081836127ae91906130ae565b905092915050565b6000819050919050565b6127c9816127b6565b82525050565b60006020820190506127e460008301846127c0565b92915050565b600080fd5b600073ffffffffffffffffffffffffffffffffffffffff82169050919050565b600061281a826127ef565b9050919050565b61282a8161280f565b811461283557600080fd5b50565b60008135905061284781612821565b92915050565b612856816127b6565b811461286157600080fd5b50565b6000813590506128738161284d565b92915050565b600080604083850312156128905761288f6127ea565b5b600061289e85828601612838565b92505060206128af85828601612864565b9150509250929050565b6000602082840312156128cf576128ce6127ea565b5b60006128dd84828501612864565b91505092915050565b6128ef8161280f565b82525050565b600060208201905061290a60008301846128e6565b92915050565b60008115159050919050565b61292581612910565b82525050565b6000602082019050612940600083018461291c565b92915050565b6000806040838503121561295d5761295c6127ea565b5b600061296b85828601612838565b925050602061297c85828601612838565b9150509250929050565b6000819050919050565b60006129ab6129a66129a1846127ef565b612986565b6127ef565b9050919050565b60006129bd82612990565b9050919050565b60006129cf826129b2565b9050919050565b6129df816129c4565b82525050565b60006020820190506129fa60008301846129d6565b92915050565b60008060008060808587031215612a1a57612a196127ea565b5b6000612a2887828801612838565b9450506020612a3987828801612864565b9350506040612a4a87828801612838565b9250506060612a5b87828801612864565b91505092959194509250565b600060e082019050612a7c600083018a6127c0565b612a8960208301896128e6565b612a9660408301886128e6565b612aa360608301876127c0565b612ab060808301866128e6565b612abd60a08301856127c0565b612aca60c08301846127c0565b98975050505050505050565b600060208284031215612aec57612aeb6127ea565b5b6000612afa84828501612838565b91505092915050565b6000606082019050612b1860008301866128e6565b612b2560208301856128e6565b612b3260408301846127c0565b949350505050565b612b4381612910565b8114612b4e57600080fd5b50565b600081519050612b6081612b3a565b92915050565b600060208284031215612b7c57612b7b6127ea565b5b6000612b8a84828501612b51565b91505092915050565b6000608082019050612ba860008301876128e6565b612bb560208301866128e6565b612bc260408301856127c0565b612bcf60608301846127c0565b95945050505050565b600082825260208201905092915050565b7f5265656e7472616e742063616c6c206465746563746564210000000000000000600082015250565b6000612c1f601883612bd8565b9150612c2a82612be9565b602082019050919050565b60006020820190508181036000830152612c4e81612c12565b9050919050565b600081905092915050565b50565b6000612c70600083612c55565b9150612c7b82612c60565b600082019050919050565b6000612c9182612c63565b9150819050919050565b7f6661696c656420746f2073656e6420616d6f756e740000000000000000000000600082015250565b6000612cd1601583612bd8565b9150612cdc82612c9b565b602082019050919050565b60006020820190508181036000830152612d0081612cc4565b9050919050565b7f4f776e61626c653a2063616c6c6572206973206e6f7420746865206f776e6572600082015250565b6000612d3d602083612bd8565b9150612d4882612d07565b602082019050919050565b60006020820190508181036000830152612d6c81612d30565b9050919050565b6000604082019050612d8860008301856128e6565b612d95602083018461291c565b9392505050565b6000604082019050612db160008301856128e6565b612dbe60208301846127c0565b9392505050565b7f4f776e61626c653a206e6577206f776e657220697320746865207a65726f206160008201527f6464726573730000000000000000000000000000000000000000000000000000602082015250565b6000612e21602683612bd8565b9150612e2c82612dc5565b604082019050919050565b60006020820190508181036000830152612e5081612e14565b9050919050565b7f4e487b7100000000000000000000000000000000000000000000000000000000600052601160045260246000fd5b6000612e91826127b6565b9150612e9c836127b6565b9250827fffffffffffffffffffffffffffffffffffffffffffffffffffffffffffffffff03821115612ed157612ed0612e57565b5b828201905092915050565b6000612ee7826127b6565b9150612ef2836127b6565b925082821015612f0557612f04612e57565b5b828203905092915050565b600061012082019050612f26600083018c6127c0565b612f33602083018b6128e6565b612f40604083018a6128e6565b612f4d60608301896127c0565b612f5a60808301886128e6565b612f6760a08301876127c0565b612f7460c08301866128e6565b612f8160e08301856127c0565b612f8f61010083018461291c565b9a9950505050505050505050565b60006fffffffffffffffffffffffffffffffff82169050919050565b612fc281612f9d565b8114612fcd57600080fd5b50565b600081519050612fdf81612fb9565b92915050565b60008060408385031215612ffc57612ffb6127ea565b5b600061300a85828601612fd0565b925050602061301b85828601612b51565b9150509250929050565b6000613030826127b6565b915061303b836127b6565b9250817fffffffffffffffffffffffffffffffffffffffffffffffffffffffffffffffff048311821515161561307457613073612e57565b5b828202905092915050565b7f4e487b7100000000000000000000000000000000000000000000000000000000600052601260045260246000fd5b60006130b9826127b6565b91506130c4836127b6565b9250826130d4576130d361307f565b5b82820490509291505056fea26469706673582212203e684fde45221cba2ac8e478092160611015599ea0b55df7bec535cfb57930b464736f6c634300080f0033",
  "immutableReferences": {},
  "source": "// SPDX-License-Identifier: MIT\npragma solidity ^0.8.0;\n\n/// @title Fojini Exchange Smart Contract\n/// @author Zvinodashe Mupambirei\n/// @notice Import Fojini Token contract\nimport \"./Token.sol\";\n\n/// @notice Include ILighthoue interface. Interact with currently deployed interfaces\nimport \"./Ilighthouse.sol\";\n\n/// @notice Library SafeMath used to prevent overflows and underflows\nimport \"@openzeppelin/contracts/utils/math/SafeMath.sol\";\n\n/// @notice Library Ownable to control certain things only admin/owner can do\nimport \"@openzeppelin/contracts/access/Ownable.sol\";\n\ncontract Exchange is Ownable {\n    using SafeMath for uint;\n\n    /// @notice Address Lighthouse for randomness\n    ILighthouse public myLighthouse;\n\n    /// @notice Circuit breaker pattern some functions stop in emergency or only run in emergency\n    bool public emergency;\n\n    modifier stopInEmergency() {\n        require(!emergency);\n        _;\n    }\n\n    modifier onlyInEmergency() {\n        require(emergency);\n        _;\n    }\n\n    /// @notice Variables feeAccount receives exchange fees, feePercent the fixed fee percentage\n    address public feeAccount;\n    uint256 public feePercent;\n\n    address public constant ETHER = address(0); // store Ether in tokens mapping with blank address\n    mapping(address => mapping(address => uint256)) public tokens;\n\n    mapping(uint256 => _Order) public orders;\n    uint256 public orderCount;\n    uint256 public cancelledOrderCount;\n    uint256 public filledOrderCount;\n\n    /// @notice Track if order is cancelled struct orderCancelled or filled struct orderFilled using its id\n    mapping(uint256 => bool) public orderCancelled;\n    mapping(uint256 => bool) public orderFilled;\n\n    /// Reentrancy mutex\n    bool private locked = false;\n\n    /// @notice Event when amount deposited exchange\n    event Deposit(address token, address user, uint256 amount, uint256 balance);\n    /// @notice Event when amount withdrawn exchange\n    event Withdraw(\n        address token,\n        address user,\n        uint256 amount,\n        uint256 balance\n    );\n    /// @notice Event when an order is placed on an exchange\n    event Order(\n        uint256 id,\n        address user,\n        address tokenGet,\n        uint256 amountGet,\n        address tokenGive,\n        uint256 amountGive,\n        uint256 timestamp\n    );\n    /// @notice Event when an order is cancelled\n    event Cancel(\n        uint256 id,\n        address user,\n        address tokenGet,\n        uint256 amountGet,\n        address tokenGive,\n        uint256 amountGive,\n        uint256 timestamp\n    );\n    /// @notice Event when a trade is done, buy , sell matched\n    /// Also returns true if the trade was a lucky one, so no fees\n    event Trade(\n        uint256 id,\n        address user,\n        address tokenGet,\n        uint256 amountGet,\n        address tokenGive,\n        uint256 amountGive,\n        address userFill,\n        uint256 timestamp,\n        bool isLucky\n    );\n\n    /// Event when exchange is stopped due to emergency\n    event StopExchange(address admin, bool isEmergency);\n    /// Event when exchange is restarted after emergency\n    event StartExchange(address admin, bool isEmergency);\n    /// Structs representing an order has unique id, user and amounts to give and ge between two tokens to exchange\n    struct _Order {\n        uint256 id;\n        address user;\n        address tokenGet;\n        uint256 amountGet;\n        address tokenGive;\n        uint256 amountGive;\n        uint256 timestamp;\n    }\n\n    /// @notice Constructor, when exchange is deployed fee account,feePercent, lighthouse address is set\n    /// @param _feeAccount address that receives fees\n    /// @param _feePercent fee applied per trade\n    /// @param _feePercent fee applied per trade\n    /// @param _myLighthouse address of Lighthouse\n    constructor(\n        address _feeAccount,\n        uint256 _feePercent,\n        ILighthouse _myLighthouse\n    ) public {\n        feeAccount = _feeAccount;\n        feePercent = _feePercent;\n        // Set the address of the lighthouse...\n        myLighthouse = _myLighthouse;\n    }\n\n    /// @notice Stop some functionality in emergency\n    function stopExchange() external onlyOwner stopInEmergency {\n        emergency = true;\n        emit StopExchange(msg.sender, emergency);\n    }\n\n    /// @notice Stop emergency once challenges have been fixed\n    function startExchange() external onlyOwner onlyInEmergency {\n        emergency = false;\n        emit StartExchange(msg.sender, emergency);\n    }\n\n    /// @notice Deposit ether into exchange\n    /// @dev Zero address used for Ether as it doesnt have contract address\n    /// @dev Same Deposit Event used for all tokens, each token is identified by its address\n    /// Emit Deposit event\n    function depositEther() external payable stopInEmergency {\n        tokens[ETHER][msg.sender] = tokens[ETHER][msg.sender].add(msg.value);\n        emit Deposit(ETHER, msg.sender, msg.value, tokens[ETHER][msg.sender]);\n    }\n\n    /// @notice Withdraw ether from the exchange\n    /// @dev Same Withdraw Event used for all tokens, each token is identified by its address\n    /// @param _amount of ether to withdraw\n    /// Emit Withdraw event\n    function withdrawEther(uint _amount) external {\n        require(tokens[ETHER][msg.sender] >= _amount);\n        require(!locked, \"Reentrant call detected!\");\n        tokens[ETHER][msg.sender] = tokens[ETHER][msg.sender].sub(_amount);\n        (bool success, ) = msg.sender.call{value: _amount}(\"\");\n        require(success, \"failed to send amount\");\n        emit Withdraw(ETHER, msg.sender, _amount, tokens[ETHER][msg.sender]);\n        locked = false;\n    }\n\n    /// @notice Deposit token into exchange\n    /// @dev Token identified by its address\n    /// @dev in emergency deposits can stop CIRCUIT BREAKER\n    /// @param _token address of token eg DAI contract address,\n    /// @param _amount amount of token to deposit into exchange\n    /// Emit Deposit event\n    /// Insure Exchange supposed to be approved to move tokens\n    function depositToken(address _token, uint _amount)\n        external\n        stopInEmergency\n    {\n        require(_token != ETHER);\n        require(Token(_token).transferFrom(msg.sender, address(this), _amount));\n        tokens[_token][msg.sender] = tokens[_token][msg.sender].add(_amount);\n        emit Deposit(_token, msg.sender, _amount, tokens[_token][msg.sender]);\n    }\n\n    /// @notice Withdraw token from exchange\n    /// @dev Token identified by its address\n    /// @param _token address of token eg DAI contract address,\n    /// @param _amount amount of token to withdraw from exchange\n    /// Emit Withdraw event\n    /// Insure Exchange supposed to be approved to move tokens\n    function withdrawToken(address _token, uint256 _amount) external {\n        require(_token != ETHER);\n        require(tokens[_token][msg.sender] >= _amount);\n        tokens[_token][msg.sender] = tokens[_token][msg.sender].sub(_amount);\n        require(Token(_token).transfer(msg.sender, _amount));\n        emit Withdraw(_token, msg.sender, _amount, tokens[_token][msg.sender]);\n    }\n\n    /// @notice Balance of tokens in exchange for user\n    /// @param _token address of token eg FOJINI contract address,\n    /// @param _user address of the exchange user\n    /// @return The balance remaining for the user\n    function balanceOf(address _token, address _user)\n        external\n        view\n        returns (uint256)\n    {\n        return tokens[_token][_user];\n    }\n\n    /// @notice create an order on the exchange\n    /// @dev in emergency making orders stop > CIRCUIT BREAKER\n    /// @param _tokenGet address of token you want to get\n    /// @param _amountGet amount of _tokenGet  that you want\n    /// @param _tokenGive address token you want to give in exchange for _tokenGet\n    /// @param _amountGive amount of _tokenGive you want to give\n    /// Emit Order creation event\n    function makeOrder(\n        address _tokenGet,\n        uint256 _amountGet,\n        address _tokenGive,\n        uint256 _amountGive\n    ) external stopInEmergency {\n        orderCount = orderCount.add(1);\n        orders[orderCount] = _Order(\n            orderCount,\n            msg.sender,\n            _tokenGet,\n            _amountGet,\n            _tokenGive,\n            _amountGive,\n            block.timestamp\n        );\n        emit Order(\n            orderCount,\n            msg.sender,\n            _tokenGet,\n            _amountGet,\n            _tokenGive,\n            _amountGive,\n            block.timestamp\n        );\n    }\n\n    /// @notice Cancel existing order you created\n    /// @dev orders can be cancelled in emergency users will be informed\n    /// @param _id unique identifier of the order  to cancel\n    /// Emit Cancel order event\n    function cancelOrder(uint256 _id) external {\n        _Order storage _order = orders[_id];\n        require(address(_order.user) == msg.sender);\n        require(_order.id == _id); // The order must exist\n        cancelledOrderCount = cancelledOrderCount.add(1);\n        orderCancelled[_id] = true;\n        emit Cancel(\n            _order.id,\n            msg.sender,\n            _order.tokenGet,\n            _order.amountGet,\n            _order.tokenGive,\n            _order.amountGive,\n            block.timestamp\n        );\n    }\n\n    /// @notice Trade function to give and get amount tokens making exchange\n    /// @dev in emergency making orders stop > CIRCUIT BREAKER\n    /// @param _id unique identifier of the order to fill hence do trade\n    /// Emit Trade event\n    function fillOrder(uint256 _id) external stopInEmergency {\n        require(_id > 0 && _id <= orderCount);\n        require(!orderFilled[_id]);\n        require(!orderCancelled[_id]);\n        _Order storage _order = orders[_id];\n        _trade(\n            _order.id,\n            _order.user,\n            _order.tokenGet,\n            _order.amountGet,\n            _order.tokenGive,\n            _order.amountGive\n        );\n        filledOrderCount = filledOrderCount.add(1);\n        orderFilled[_order.id] = true;\n    }\n\n    /// @dev internal helper trade function with required safety checks\n    /// @param _orderId unique identifier of the order to fill hence do trade\n    /// @param _user address of user exchanging to get tokens they want in trade\n    /// @param _tokenGet address of token you want to get\n    /// @param _amountGet amount of _tokenGet  that you want\n    /// @param _tokenGive address token you want to give in exchange for _tokenGet\n    /// @param _amountGive amount of _tokenGive you want to giv\n    /// Internal function to facilitate the trade of tokens\n    function _trade(\n        uint256 _orderId,\n        address _user,\n        address _tokenGet,\n        uint256 _amountGet,\n        address _tokenGive,\n        uint256 _amountGive\n    ) internal {\n        bool _isLucky = _rollDiceLucky();\n        if (!_isLucky) {\n            // Charging fees only if unlucky\n            // Fee paid by the user that fills the order, a.k.a. msg.sender.\n            uint256 _feeAmount = _amountGet.mul(feePercent).div(100);\n            tokens[_tokenGet][msg.sender] = tokens[_tokenGet][msg.sender].sub(\n                _amountGet.add(_feeAmount)\n            );\n            tokens[_tokenGet][_user] = tokens[_tokenGet][_user].add(_amountGet);\n            tokens[_tokenGet][feeAccount] = tokens[_tokenGet][feeAccount].add(\n                _feeAmount\n            );\n            tokens[_tokenGive][_user] = tokens[_tokenGive][_user].sub(\n                _amountGive\n            );\n            tokens[_tokenGive][msg.sender] = tokens[_tokenGive][msg.sender].add(\n                _amountGive\n            );\n        } else {\n            uint256 _feeAmount = 0;\n            tokens[_tokenGet][msg.sender] = tokens[_tokenGet][msg.sender].sub(\n                _amountGet.add(_feeAmount)\n            );\n            tokens[_tokenGet][_user] = tokens[_tokenGet][_user].add(_amountGet);\n            tokens[_tokenGive][_user] = tokens[_tokenGive][_user].sub(\n                _amountGive\n            );\n            tokens[_tokenGive][msg.sender] = tokens[_tokenGive][msg.sender].add(\n                _amountGive\n            );\n            // I am thinking In future extend to eg every 100 trade gets eg 1 ETH, share of fees, free trades for next 15 trades etc\n        }\n\n        emit Trade(\n            _orderId,\n            _user,\n            _tokenGet,\n            _amountGet,\n            _tokenGive,\n            _amountGive,\n            msg.sender,\n            block.timestamp,\n            _isLucky\n        );\n    }\n\n    /// @return true if rolldie is lucky\n    /// dice rolled for every trade! If lucky get number 6 no fee charged for trade\n    function _rollDiceLucky() internal view returns (bool) {\n        /*\n        Get random number from lighthouse\n        a random number from 1 to 6 \n        */\n        uint number;\n        bool ok;\n        // obtain random number from Rhombus Lighthouse\n        (number, ok) = myLighthouse.peekData();\n        if (ok && number == 6) {\n            return true;\n        } else {\n            return false;\n        }\n    }\n}\n",
  "sourcePath": "/Users/zed/Desktop/Fojini-DEX-master 2/src/contracts/Exchange.sol",
  "compiler": {
    "name": "solc",
    "version": "0.8.15+commit.e14f2714.Emscripten.clang"
  },
  "schemaVersion": "3.4.4",
  "updatedAt": "2022-06-24T14:17:11.756Z",
  "networkType": "ethereum",
  "devdoc": {
    "kind": "dev",
    "methods": {
      "balanceOf(address,address)": {
        "params": {
          "_token": "address of token eg FOJINI contract address,",
          "_user": "address of the exchange user"
        },
        "returns": {
          "_0": "The balance remaining for the user"
        }
      },
      "cancelOrder(uint256)": {
        "details": "orders can be cancelled in emergency users will be informed",
        "params": {
          "_id": "unique identifier of the order  to cancel Emit Cancel order event"
        }
      },
      "constructor": {
        "params": {
          "_feeAccount": "address that receives fees",
          "_feePercent": "fee applied per trade",
          "_myLighthouse": "address of Lighthouse"
        }
      },
      "depositEther()": {
        "details": "Zero address used for Ether as it doesnt have contract addressSame Deposit Event used for all tokens, each token is identified by its address Emit Deposit event"
      },
      "depositToken(address,uint256)": {
        "details": "Token identified by its addressin emergency deposits can stop CIRCUIT BREAKER",
        "params": {
          "_amount": "amount of token to deposit into exchange Emit Deposit event Insure Exchange supposed to be approved to move tokens",
          "_token": "address of token eg DAI contract address,"
        }
      },
      "fillOrder(uint256)": {
        "details": "in emergency making orders stop > CIRCUIT BREAKER",
        "params": {
          "_id": "unique identifier of the order to fill hence do trade Emit Trade event"
        }
      },
      "makeOrder(address,uint256,address,uint256)": {
        "details": "in emergency making orders stop > CIRCUIT BREAKER",
        "params": {
          "_amountGet": "amount of _tokenGet  that you want",
          "_amountGive": "amount of _tokenGive you want to give Emit Order creation event",
          "_tokenGet": "address of token you want to get",
          "_tokenGive": "address token you want to give in exchange for _tokenGet"
        }
      },
      "owner()": {
        "details": "Returns the address of the current owner."
      },
      "renounceOwnership()": {
        "details": "Leaves the contract without owner. It will not be possible to call `onlyOwner` functions anymore. Can only be called by the current owner. NOTE: Renouncing ownership will leave the contract without an owner, thereby removing any functionality that is only available to the owner."
      },
      "transferOwnership(address)": {
        "details": "Transfers ownership of the contract to a new account (`newOwner`). Can only be called by the current owner."
      },
      "withdrawEther(uint256)": {
        "details": "Same Withdraw Event used for all tokens, each token is identified by its address",
        "params": {
          "_amount": "of ether to withdraw Emit Withdraw event"
        }
      },
      "withdrawToken(address,uint256)": {
        "details": "Token identified by its address",
        "params": {
          "_amount": "amount of token to withdraw from exchange Emit Withdraw event Insure Exchange supposed to be approved to move tokens",
          "_token": "address of token eg DAI contract address,"
        }
      }
    },
    "version": 1
  },
  "userdoc": {
    "events": {
      "Cancel(uint256,address,address,uint256,address,uint256,uint256)": {
        "notice": "Event when an order is cancelled"
      },
      "Deposit(address,address,uint256,uint256)": {
        "notice": "Event when amount deposited exchange"
      },
      "Order(uint256,address,address,uint256,address,uint256,uint256)": {
        "notice": "Event when an order is placed on an exchange"
      },
      "StartExchange(address,bool)": {
        "notice": "Event when exchange is restarted after emergency"
      },
      "StopExchange(address,bool)": {
        "notice": "Event when exchange is stopped due to emergency"
      },
      "Trade(uint256,address,address,uint256,address,uint256,address,uint256,bool)": {
        "notice": "Event when a trade is done, buy , sell matched Also returns true if the trade was a lucky one, so no fees"
      },
      "Withdraw(address,address,uint256,uint256)": {
        "notice": "Event when amount withdrawn exchange"
      }
    },
    "kind": "user",
    "methods": {
      "balanceOf(address,address)": {
        "notice": "Balance of tokens in exchange for user"
      },
      "cancelOrder(uint256)": {
        "notice": "Cancel existing order you created"
      },
      "constructor": {
        "notice": "Constructor, when exchange is deployed fee account,feePercent, lighthouse address is set"
      },
      "depositEther()": {
        "notice": "Deposit ether into exchange"
      },
      "depositToken(address,uint256)": {
        "notice": "Deposit token into exchange"
      },
      "emergency()": {
        "notice": "Circuit breaker pattern some functions stop in emergency or only run in emergency"
      },
      "feeAccount()": {
        "notice": "Variables feeAccount receives exchange fees, feePercent the fixed fee percentage"
      },
      "fillOrder(uint256)": {
        "notice": "Trade function to give and get amount tokens making exchange"
      },
      "makeOrder(address,uint256,address,uint256)": {
        "notice": "create an order on the exchange"
      },
      "myLighthouse()": {
        "notice": "Address Lighthouse for randomness"
      },
      "orderCancelled(uint256)": {
        "notice": "Track if order is cancelled struct orderCancelled or filled struct orderFilled using its id"
      },
      "startExchange()": {
        "notice": "Stop emergency once challenges have been fixed"
      },
      "stopExchange()": {
        "notice": "Stop some functionality in emergency"
      },
      "withdrawEther(uint256)": {
        "notice": "Withdraw ether from the exchange"
      },
      "withdrawToken(address,uint256)": {
        "notice": "Withdraw token from exchange"
      }
    },
    "version": 1
  }
}