{
  "contractName": "Lighthouse",
  "abi": [
    {
      "inputs": [],
      "name": "auth",
      "outputs": [
        {
          "internalType": "address",
          "name": "",
          "type": "address"
        }
      ],
      "stateMutability": "view",
      "type": "function",
      "constant": true
    },
    {
      "inputs": [
        {
          "internalType": "address",
          "name": "newAuth",
          "type": "address"
        }
      ],
      "name": "changeAuth",
      "outputs": [],
      "stateMutability": "nonpayable",
      "type": "function"
    },
    {
      "inputs": [
        {
          "internalType": "contract Searcher",
          "name": "newSeeker",
          "type": "address"
        }
      ],
      "name": "changeSearcher",
      "outputs": [],
      "stateMutability": "nonpayable",
      "type": "function"
    },
    {
      "inputs": [
        {
          "internalType": "uint256",
          "name": "newMaxAge",
          "type": "uint256"
        }
      ],
      "name": "setMaxAge",
      "outputs": [],
      "stateMutability": "nonpayable",
      "type": "function"
    },
    {
      "inputs": [
        {
          "internalType": "uint256",
          "name": "DataValue",
          "type": "uint256"
        },
        {
          "internalType": "uint256",
          "name": "nonce",
          "type": "uint256"
        }
      ],
      "name": "write",
      "outputs": [],
      "stateMutability": "nonpayable",
      "type": "function"
    },
    {
      "inputs": [],
      "name": "notTooLongSinceUpdated",
      "outputs": [
        {
          "internalType": "bool",
          "name": "",
          "type": "bool"
        }
      ],
      "stateMutability": "view",
      "type": "function",
      "constant": true
    },
    {
      "inputs": [],
      "name": "peekData",
      "outputs": [
        {
          "internalType": "uint128",
          "name": "v",
          "type": "uint128"
        },
        {
          "internalType": "bool",
          "name": "b",
          "type": "bool"
        }
      ],
      "stateMutability": "view",
      "type": "function",
      "constant": true
    },
    {
      "inputs": [],
      "name": "peekUpdated",
      "outputs": [
        {
          "internalType": "uint32",
          "name": "v",
          "type": "uint32"
        },
        {
          "internalType": "bool",
          "name": "b",
          "type": "bool"
        }
      ],
      "stateMutability": "view",
      "type": "function",
      "constant": true
    },
    {
      "inputs": [],
      "name": "peekLastNonce",
      "outputs": [
        {
          "internalType": "uint32",
          "name": "v",
          "type": "uint32"
        },
        {
          "internalType": "bool",
          "name": "b",
          "type": "bool"
        }
      ],
      "stateMutability": "view",
      "type": "function",
      "constant": true
    },
    {
      "inputs": [],
      "name": "peek",
      "outputs": [
        {
          "internalType": "bytes32",
          "name": "v",
          "type": "bytes32"
        },
        {
          "internalType": "bool",
          "name": "ok",
          "type": "bool"
        }
      ],
      "stateMutability": "view",
      "type": "function",
      "constant": true
    },
    {
      "inputs": [],
      "name": "read",
      "outputs": [
        {
          "internalType": "bytes32",
          "name": "x",
          "type": "bytes32"
        }
      ],
      "stateMutability": "view",
      "type": "function",
      "constant": true
    }
  ],
  "bytecode": "0x6080604052336000806101000a81548173ffffffffffffffffffffffffffffffffffffffff021916908373ffffffffffffffffffffffffffffffffffffffff16021790555034801561005057600080fd5b50610f07806100606000396000f3fe608060405234801561001057600080fd5b50600436106100a95760003560e01c80639c0e3f7a116100715780639c0e3f7a14610142578063bdf384a81461015e578063becfbf691461017d578063d6e848ac1461019c578063de9375f2146101b8578063e2f90632146101d6576100a9565b806322969eac146100ae578063420b81f6146100ca57806357de26a4146100e957806359e02dd7146101075780635ae28fc914610126575b600080fd5b6100c860048036038101906100c39190610915565b6101f4565b005b6100d26102c5565b6040516100e0929190610988565b60405180910390f35b6100f16102ea565b6040516100fe91906109ca565b60405180910390f35b61010f61035f565b60405161011d9291906109e5565b60405180910390f35b610140600480360381019061013b9190610a44565b610399565b005b61015c60048036038101906101579190610a71565b610431565b005b61016661064f565b604051610174929190610ad0565b60405180910390f35b61018561067e565b604051610193929190610ad0565b60405180910390f35b6101b660048036038101906101b19190610b37565b6106ad565b005b6101c0610855565b6040516101cd9190610b73565b60405180910390f35b6101de610879565b6040516101eb9190610b8e565b60405180910390f35b3373ffffffffffffffffffffffffffffffffffffffff1660008054906101000a900473ffffffffffffffffffffffffffffffffffffffff1673ffffffffffffffffffffffffffffffffffffffff1614610282576040517f08c379a000000000000000000000000000000000000000000000000000000000815260040161027990610c06565b60405180910390fd5b806000806101000a81548173ffffffffffffffffffffffffffffffffffffffff021916908373ffffffffffffffffffffffffffffffffffffffff16021790555050565b60008060025491506102d5610879565b80156102e45750600060025414155b90509091565b60006102f4610879565b80156103035750600060025414155b610342576040517f08c379a000000000000000000000000000000000000000000000000000000000815260040161033990610c72565b60405180910390fd5b6fffffffffffffffffffffffffffffffff6002541660001b905090565b6000806fffffffffffffffffffffffffffffffff6002541660001b9150610384610879565b80156103935750600060025414155b90509091565b3373ffffffffffffffffffffffffffffffffffffffff1660008054906101000a900473ffffffffffffffffffffffffffffffffffffffff1673ffffffffffffffffffffffffffffffffffffffff1614610427576040517f08c379a000000000000000000000000000000000000000000000000000000000815260040161041e90610c06565b60405180910390fd5b8060038190555050565b3373ffffffffffffffffffffffffffffffffffffffff1660008054906101000a900473ffffffffffffffffffffffffffffffffffffffff1673ffffffffffffffffffffffffffffffffffffffff16146104bf576040517f08c379a00000000000000000000000000000000000000000000000000000000081526004016104b690610c06565b60405180910390fd5b6000608083901c14610506576040517f08c379a00000000000000000000000000000000000000000000000000000000081526004016104fd90610cde565b60405180910390fd5b6000602082901c1461054d576040517f08c379a000000000000000000000000000000000000000000000000000000000815260040161054490610d4a565b60405180910390fd5b608042901b60c082901b836105629190610d99565b61056c9190610d99565b600281905550600073ffffffffffffffffffffffffffffffffffffffff16600160009054906101000a900473ffffffffffffffffffffffffffffffffffffffff1673ffffffffffffffffffffffffffffffffffffffff161461064b57600160009054906101000a900473ffffffffffffffffffffffffffffffffffffffff1673ffffffffffffffffffffffffffffffffffffffff1663181783586040518163ffffffff1660e01b8152600401600060405180830381600087803b15801561063257600080fd5b505af1158015610646573d6000803e3d6000fd5b505050505b5050565b60008060006080600254901c9050809250610668610879565b80156106775750600060025414155b9150509091565b600080600060c0600254901c9050809250610697610879565b80156106a65750600060025414155b9150509091565b3373ffffffffffffffffffffffffffffffffffffffff1660008054906101000a900473ffffffffffffffffffffffffffffffffffffffff1673ffffffffffffffffffffffffffffffffffffffff161461073b576040517f08c379a000000000000000000000000000000000000000000000000000000000815260040161073290610c06565b60405180910390fd5b80600160006101000a81548173ffffffffffffffffffffffffffffffffffffffff021916908373ffffffffffffffffffffffffffffffffffffffff160217905550630da4b055600160009054906101000a900473ffffffffffffffffffffffffffffffffffffffff1673ffffffffffffffffffffffffffffffffffffffff1663eeb728666040518163ffffffff1660e01b8152600401602060405180830381865afa1580156107ee573d6000803e3d6000fd5b505050506040513d601f19601f820116820180604052508101906108129190610e04565b14610852576040517f08c379a000000000000000000000000000000000000000000000000000000000815260040161084990610e7d565b60405180910390fd5b50565b60008054906101000a900473ffffffffffffffffffffffffffffffffffffffff1681565b60008067ffffffffffffffff6080600254901c16426108989190610e9d565b90506003548110806108ac57506000600354145b91505090565b600080fd5b600073ffffffffffffffffffffffffffffffffffffffff82169050919050565b60006108e2826108b7565b9050919050565b6108f2816108d7565b81146108fd57600080fd5b50565b60008135905061090f816108e9565b92915050565b60006020828403121561092b5761092a6108b2565b5b600061093984828501610900565b91505092915050565b60006fffffffffffffffffffffffffffffffff82169050919050565b61096781610942565b82525050565b60008115159050919050565b6109828161096d565b82525050565b600060408201905061099d600083018561095e565b6109aa6020830184610979565b9392505050565b6000819050919050565b6109c4816109b1565b82525050565b60006020820190506109df60008301846109bb565b92915050565b60006040820190506109fa60008301856109bb565b610a076020830184610979565b9392505050565b6000819050919050565b610a2181610a0e565b8114610a2c57600080fd5b50565b600081359050610a3e81610a18565b92915050565b600060208284031215610a5a57610a596108b2565b5b6000610a6884828501610a2f565b91505092915050565b60008060408385031215610a8857610a876108b2565b5b6000610a9685828601610a2f565b9250506020610aa785828601610a2f565b9150509250929050565b600063ffffffff82169050919050565b610aca81610ab1565b82525050565b6000604082019050610ae56000830185610ac1565b610af26020830184610979565b9392505050565b6000610b04826108d7565b9050919050565b610b1481610af9565b8114610b1f57600080fd5b50565b600081359050610b3181610b0b565b92915050565b600060208284031215610b4d57610b4c6108b2565b5b6000610b5b84828501610b22565b91505092915050565b610b6d816108d7565b82525050565b6000602082019050610b886000830184610b64565b92915050565b6000602082019050610ba36000830184610979565b92915050565b600082825260208201905092915050565b7f556e617574686f72697365642061636365737300000000000000000000000000600082015250565b6000610bf0601383610ba9565b9150610bfb82610bba565b602082019050919050565b60006020820190508181036000830152610c1f81610be3565b9050919050565b7f496e76616c696420646174612073746f72656400000000000000000000000000600082015250565b6000610c5c601383610ba9565b9150610c6782610c26565b602082019050919050565b60006020820190508181036000830152610c8b81610c4f565b9050919050565b7f56616c756520746f6f206c617267650000000000000000000000000000000000600082015250565b6000610cc8600f83610ba9565b9150610cd382610c92565b602082019050919050565b60006020820190508181036000830152610cf781610cbb565b9050919050565b7f4e6f6e636520746f6f206c617267650000000000000000000000000000000000600082015250565b6000610d34600f83610ba9565b9150610d3f82610cfe565b602082019050919050565b60006020820190508181036000830152610d6381610d27565b9050919050565b7f4e487b7100000000000000000000000000000000000000000000000000000000600052601160045260246000fd5b6000610da482610a0e565b9150610daf83610a0e565b9250827fffffffffffffffffffffffffffffffffffffffffffffffffffffffffffffffff03821115610de457610de3610d6a565b5b828201905092915050565b600081519050610dfe81610a18565b92915050565b600060208284031215610e1a57610e196108b2565b5b6000610e2884828501610def565b91505092915050565b7f696e76616c696420736561726368657200000000000000000000000000000000600082015250565b6000610e67601083610ba9565b9150610e7282610e31565b602082019050919050565b60006020820190508181036000830152610e9681610e5a565b9050919050565b6000610ea882610a0e565b9150610eb383610a0e565b925082821015610ec657610ec5610d6a565b5b82820390509291505056fea264697066735822122067517150624b5afc37b07f9760efa400c64e09e5e60422c36641f4b8fad98fbb64736f6c634300080f0033",
  "immutableReferences": {},
  "source": "// SPDX-License-Identifier: MIT\npragma solidity ^0.8.0;\n\n// Searcher is an interface for contracts that want to be notified of incoming data\nabstract contract Searcher {\n    // poke is called when new data arrives\n    function poke() public virtual;\n\n    // this is called to ensure that only valid Searchers can be added to the Lighthouse - returns an arbitrarily chosen number\n    function identify() external pure returns (uint) {\n        return 0xda4b055;\n    }\n}\n\n// for operation of this contract see the readme file.\ncontract Lighthouse {\n    address public auth = msg.sender; // ownable model. No real value in making it transferrable.\n\n    Searcher seeker; // a single contract that can be notified of data changes\n\n    uint value; // holds all the data bit fiddled into a single 32 byte word.\n\n    uint maxAge; // if non zero, sets a limit to data validity\n\n    /*--------------------------------- Admin Functions -----------------------------------------------*/\n\n    // Only allows an authorized address to call certain functions\n    modifier onlyAuth() {\n        require(auth == msg.sender, \"Unauthorised access\");\n        _;\n    }\n\n    function changeAuth(address newAuth) public onlyAuth {\n        auth = newAuth;\n    }\n\n    function changeSearcher(Searcher newSeeker) public onlyAuth {\n        seeker = newSeeker;\n        require(seeker.identify() == 0xda4b055, \"invalid searcher\");\n    }\n\n    function setMaxAge(uint newMaxAge) public onlyAuth {\n        maxAge = newMaxAge;\n    }\n\n    // Writes a value into the lighthouse. Usually done by a rhombus oracle\n    function write(uint DataValue, uint nonce) external onlyAuth {\n        require((DataValue >> 128) == 0, \"Value too large\");\n        require((nonce >> 32) == 0, \"Nonce too large\");\n        value = DataValue + (nonce << 192) + (block.timestamp << 128);\n        if (address(seeker) != address(0)) {\n            seeker.poke();\n        }\n    }\n\n    /*--------------------------------- Public Functions -----------------------------------------------*/\n\n    // Checks if data is within age limit\n    function notTooLongSinceUpdated() public view returns (bool) {\n        uint since = block.timestamp -\n            ((value >> 128) &\n                0x000000000000000000000000000000000000000000000000ffffffffffffffff);\n        return (since < maxAge) || (maxAge == 0);\n    }\n\n    // Obtains the data stored inside the lighthouse\n    function peekData() external view returns (uint128 v, bool b) {\n        v = uint128(value);\n        b = notTooLongSinceUpdated() && value != 0;\n        return (v, b);\n    }\n\n    function peekUpdated() external view returns (uint32 v, bool b) {\n        uint v2 = value >> 128;\n        v = uint32(v2);\n        b = notTooLongSinceUpdated() && value != 0;\n        return (v, b);\n    }\n\n    function peekLastNonce() external view returns (uint32 v, bool b) {\n        uint v2 = value >> 192;\n        v = uint32(v2);\n        b = notTooLongSinceUpdated() && value != 0;\n        return (v, b);\n    }\n\n    function peek() external view returns (bytes32 v, bool ok) {\n        v = bytes32(\n            value &\n                0x00000000000000000000000000000000ffffffffffffffffffffffffffffffff\n        );\n        ok = notTooLongSinceUpdated() && value != 0;\n        return (v, ok);\n    }\n\n    function read() external view returns (bytes32 x) {\n        require(notTooLongSinceUpdated() && value != 0, \"Invalid data stored\");\n        return\n            bytes32(\n                value &\n                    0x00000000000000000000000000000000ffffffffffffffffffffffffffffffff\n            );\n    }\n}\n",
  "sourcePath": "/Users/zed/Desktop/Fojini-DEX-master 2/src/contracts/Lighthouse.sol",
  "compiler": {
    "name": "solc",
    "version": "0.8.15+commit.e14f2714.Emscripten.clang"
  },
  "schemaVersion": "3.4.4",
  "updatedAt": "2022-06-24T14:17:11.716Z",
  "networkType": "ethereum",
  "devdoc": {
    "kind": "dev",
    "methods": {},
    "version": 1
  },
  "userdoc": {
    "kind": "user",
    "methods": {},
    "version": 1
  }
}